:1000000003308A00C22B00000A108A100A118207EE
:1000100028340C340134063454283110201054286C
:100020003210201054283300463084008313000817
:10003000031928280130F800F701F70B1D28F80BE9
:100040001C284A30F700F70B23282628800B1A2893
:1000500008004D0EF039F7000F30080577048800CE
:10006000000008143328081008000808F700080EDC
:100070000F39F80008008316081088100811831241
:1000800088100F3083160805F03888008312081591
:1000900000000814000035207808CD00081000008A
:1000A0000814000035207808CC0008100F308316A3
:1000B0000805880083124D0EF700F030F705770829
:1000C0004C04F8007808CC00CC1B41284A1C88104E
:1000D0004A18881400000811000008104B0ECC00CC
:1000E0000F30CC054C08CD0029204B080F39CC002F
:1000F000CD00292008000F3083160805880008105D
:100100008810081183128810081108100F30C600DB
:1001100014200130B8003808033C031C9728033032
:10012000CD0029200530C6001420B80A8B280230E3
:10013000CD0029200530C6001420B8013808033C42
:10014000031CAB2838080420B900CA013908CB00C9
:100150003B20B80A9E288A110A12DE2B470BB128D1
:10016000B4284030C800B528C80101304602C8078D
:1001700048088038C900CA014908CB003B20080064
:100180004508073A0319CE280B3A0319D328063A33
:100190000319DB28023A0319E128E6280130C600DA
:1001A000C700AE20EB28CA010130CB003B20023053
:1001B000C6001420EB280130C6000230C700AE2074
:1001C000EB28CA011030CB003B20EB280130CA00DD
:1001D0004508CB003B2008000B08B8008B138316A2
:1001E00003178C170C140000000083120C087F39D1
:1001F000031933290313B90003170D080313BA00B9
:1002000003170F080313BB003908C500C0203A08C4
:1002100003178D0003133B0803178F0083168C17F9
:100220000C140000000083120C0D0E0D7F39031911
:1002300033290313B90003170D080313BA0003177A
:100240000F080313BB003908C500C0203A08031784
:100250008D0003133B0803178F008D0A03198F0AC3
:100260000313EF2803170313B81B8B178A110A1205
:10027000E92B8E30F7003908F8003808F900FA0148
:10028000F808031D4D297908F800F9010830F70234
:10029000F808031D4D29F70155290310F81B5429AF
:1002A000F90DF80DF7034D29F81308003808031964
:1002B0001B2AC4003C0803191B2AC402031C65291D
:1002C0007F30C40703181B2A6B298130C402031C2A
:1002D0001B2A03191B2A4408F700F801F901FA0147
:1002E000C3013908C200C2173A08C1003B08C00068
:1002F0001930C4003F08C00203188E290130C10222
:1003000003188E29C20203188E29C30203188E29EE
:10031000C30AC20AC10A3F08C007C0293E08C10279
:100320000318A9290130C2020318A929C30203181E
:10033000A929C30AC20A3E08C1073F08C007031C17
:10034000C029C10A031DC029C20A031DC029C30A4E
:10035000C0293D088038C2020318BF290130C302FA
:100360000318BF29C30A3D088038C2073E08C107E9
:10037000031C9D29C20A031D9D29C30A9D297A14C5
:10038000C40BC329CE290310C00DC10DC20DC30D6E
:100390000310FA0DF90DF80DC50D7A29451CD62963
:1003A0000310F80CF90CFA0CC50CD929F703031942
:1003B0001B2AC51B022A0310C00DC10DC20DC30D9F
:1003C0003F08C0020318EE290130C1020318EE29CC
:1003D000C2020318EE29C302031C112A3E08C102FF
:1003E0000318F9290130C2020318F929C302031CBA
:1003F000112A3D088038C2020318022A0130C302C4
:10040000031C112AFA0A031D112AF90A031D112AD5
:10041000F80A031D112AF70A03191B2AF80CF90C14
:10042000FA0C3908C4003D08C406C41F192AF8177D
:100430001F2AF8131F2AF701F801F901FA01080031
:100440008318252A4D3084008313F701F801F90140
:10045000FA01CD01CE01CF01D0014C084B044A0472
:1004600049040319632A2030D1000310C50DC60DBD
:10047000C70DC80DCD0DCE0DCF0DD00D4C085002BF
:10048000031D4C2A4B084F02031D4C2A4A084E02FA
:10049000031D4C2A49084D02031C5D2A4908CD0260
:1004A0004A08031C4A0FCE024B08031C4B0FCF0215
:1004B0004C08031C4C0FD0020314F70DF80DF90D76
:1004C000FA0DD10B352A4D088000840A4E088000B1
:1004D000840A4F088000840A50088000080004083D
:1004E000BD003C08BF000319012B3B08C8003A08B7
:1004F000C7003908C6003808C500CC01CB01203040
:10050000CA008230C90045080319F32ACD00490802
:100510000319F32ACD070318942A7F30CD02031C58
:10052000F32A0319F32A982A8130CD070318F32AF6
:100530004D08F700F801F901FA014608D100D1177A
:100540004708D0004808CF001830CD00CE014F1C1E
:10055000C12A4C08FA07031CB32AF90A031DB32A5F
:10056000F80A0319CE174B08F907031CBA2AF80A30
:100570000319CE174A08C700C7174708F80703181A
:10058000CE17CE0DF80CF90CFA0CD10CD00CCF0C08
:100590000310CD0BA62A0130F7070318F32AF81B26
:1005A000D82AD10DFA0DF90DF80DF7030319F32A26
:1005B000D11FE92AFA0A031DE92AF90A031DE92ACB
:1005C000F80A031DE92AF80CF90CFA0CF70A0319CA
:1005D000F32A4608CE004A08CE06CE1FF12AF817A5
:1005E000F72AF813F72AF701F801F901FA017A0856
:1005F000BB007908BA007808B9007708B800BF0BCB
:10060000752A3B08C8003A08C7003908C6003808F0
:10061000C5004508B63CC500FA014608C900C61722
:100620000310C60CC70CC80CFA0CF90CF80CF70C2C
:10063000C50B102BC91F272BF709F809F909FA096F
:10064000F70A0319F80A0319F90A0319FA0A7A08CA
:10065000BB007908BA007808B9007708B800BB1F5A
:100660003E2BBD03BD16B809B909BA09BB09B80AC2
:100670000319B90A0319BA0A0319BB0A3B30C400AB
:100680009A30C300CA30C200C1010A30BF003C0822
:100690000319BD0A83143830840083133B08C80053
:1006A0003A08C7003908C6003808C5004408CC001D
:1006B0004308CB004208CA004108C900202278083C
:1006C000F708031D762B3C0A3F020319762B3D08E1
:1006D0000319782B0F393F020319702B0318A82B2D
:1006E000BD1BA82B3D1B782B2030A42B2030BD0533
:1006F000BD1E862BBD123C08031DBD037708BD003F
:100700002D30C500C0203D08F700BD013C083F0268
:10071000031D942B7708BD002E30C500C0203D0876
:10072000F7002030BD0500303030BD1EA42BBD12B7
:100730003C08031DBD037708BD002D30C500C02057
:100740003D08F700BD013030F7077708C500C0202D
:1007500083104408C8004308C7004208C600410887
:10076000C500CC01CB01CA010A30C90020227A0899
:10077000C4007908C3007808C2007708C100BF0B25
:100780004A2B080003081F39830083161F149F1487
:100790001F159F1107309C008313083088001F131A
:1007A00083121F179F1783169F1783121F14831618
:1007B0001F109F101F159F1183127B280130C60048
:1007C000C700AE200C3003178D0000308F000313DC
:1007D000EC280030F8001F08C73978049F001F1567
:1007E0001F19F02B1E08FA0083161E088312B8008A
:1007F0001E08B90039217A08A3007908A2007808F8
:10080000A1007708A0002308BB002208BA00210835
:10081000B9002008B800BF01BE01BD018030BC0096
:1008200056217A08AF007908AE007808AD00770845
:10083000AC000830F8001F08C73978049F001F1566
:100840001F19202C1E08FA0083161E088312B800F8
:100850001E08B90039217A08A7007908A60078088F
:10086000A5007708A4002708BB002608BA002508C1
:10087000B9002408B800BF01BE01BD018030BC0032
:1008800056217A08B3007908B2007808B1007708D9
:10089000B0001830F8001F08C73978049F001F15F2
:1008A0001F19502C1E08FA0083161E088312B80068
:1008B0001E08B90039217A08AB007908AA00780827
:1008C000A9007708A8002B08BB002A08BA0029084D
:1008D000B9002808B800BF01BE01BD018030BC00CE
:1008E00056217A08B7007908B6007808B50077086D
:1008F000B4000130C6000230C700AE2002308400D0
:100900002F08BB002E08BA002D08B9002C08B8002B
:10091000BC016F222030C500C0202030C500C0209F
:100920002030C500C020023084003308BB003208EC
:10093000BA003108B9003008B800BC016F2220307D
:10094000C500C0202030C500C0202030C500C02018
:10095000023084003708BB003608BA003508B900F9
:0C0960003408B800BC016F22E92B6300D2
:02400E00713F00
:00000001FF
;PIC16F877A
;CRC=E96B  CREATED="29-oct.-23 10:09"
