:1000000002308A00FA2A00000A108A100A118207B8
:1000100028340C340134063454283110201054286C
:100020003210201054283300463084008313000817
:10003000031928280130F800F701F70B1D28F80BE9
:100040001C284A30F700F70B23282628800B1A2893
:1000500008004D0EF039F7000F30080577048800CE
:10006000000008143328081008000808F700080EDC
:100070000F39F80008008316081088100811831241
:1000800088100F3083160805F03888008312081591
:1000900000000814000035207808CD00081000008A
:1000A0000814000035207808CC0008100F308316A3
:1000B0000805880083124D0EF700F030F705770829
:1000C0004C04F8007808CC00CC1B41284A1C88104E
:1000D0004A18881400000811000008104B0ECC00CC
:1000E0000F30CC054C08CD0029204B080F39CC002F
:1000F000CD00292008000F3083160805880008105D
:100100008810081183128810081108100F30C600DB
:1001100014200130B8003808033C031C9728033032
:10012000CD0029200530C6001420B80A8B280230E3
:10013000CD0029200530C6001420B8013808033C42
:10014000031CAB2838080420B900CA013908CB00C9
:100150003B20B80A9E288A110A12162B470BB12899
:10016000B4284030C800B528C80101304602C8078D
:1001700048088038C900CA014908CB003B20080064
:100180004508073A0319CE280B3A0319D328063A33
:100190000319DB28023A0319E128E6280130C600DA
:1001A000C700AE20EB28CA010130CB003B20023053
:1001B000C6001420EB280130C6000230C700AE2074
:1001C000EB28CA011030CB003B20EB280130CA00DD
:1001D0004508CB003B2008000B08B8008B138316A2
:1001E00003178C170C140000000083120C087F39D1
:1001F000031933290313B90003170D080313BA00B9
:1002000003170F080313BB003908C500C0203A08C4
:1002100003178D0003133B0803178F0083168C17F9
:100220000C140000000083120C0D0E0D7F39031911
:1002300033290313B90003170D080313BA0003177A
:100240000F080313BB003908C500C0203A08031784
:100250008D0003133B0803178F008D0A03198F0AC3
:100260000313EF2803170313B81B8B178A110A1205
:10027000212B8E30F7003908F8003808F900FA0110
:10028000F808031D4D297908F800F9010830F70234
:10029000F808031D4D29F70155290310F81B5429AF
:1002A000F90DF80DF7034D29F81308004508031957
:1002B000C629CD0049080319C629CD0703186729A7
:1002C0007F30CD02031CC6290319C6296B29813052
:1002D000CD070318C6294D08F700F801F901FA0106
:1002E0004608D100D1174708D0004808CF00183081
:1002F000CD00CE014F1C94294C08FA07031C862917
:10030000F90A031D8629F80A0319CE174B08F907C5
:10031000031C8D29F80A0319CE174A08C700C7170E
:100320004708F8070318CE17CE0DF80CF90CFA0C95
:10033000D10CD00CCF0C0310CD0B79290130F7076D
:100340000318C629F81BAB29D10DFA0DF90DF80DCC
:10035000F7030319C629D11FBC29FA0A031DBC29BA
:10036000F90A031DBC29F80A031DBC29F80CF90C75
:10037000FA0CF70A0319C6294608CE004A08CE0629
:10038000CE1FC429F817CA29F813CA29F701F801A2
:10039000F901FA0108008318D0294D308400831335
:1003A000F701F801F901FA01CD01CE01CF01D00129
:1003B0004C084B044A04490403190E2A2030D1008A
:1003C0000310C50DC60DC70DC80DCD0DCE0DCF0D3B
:1003D000D00D4C085002031DF7294B084F02031D96
:1003E000F7294A084E02031DF72949084D02031C4C
:1003F000082A4908CD024A08031C4A0FCE024B08BE
:10040000031C4B0FCF024C08031C4C0FD0020314EB
:10041000F70DF80DF90DFA0DD10BE0294D0880000C
:10042000840A4E088000840A4F088000840A50081D
:10043000800008000408BD003C08BF000319392AE9
:100440003B08C8003A08C7003908C6003808C5008C
:10045000CC01CB012030CA008230C90056217A0875
:10046000BB007908BA007808B9007708B800BF0B5C
:10047000202A3B08C8003A08C7003908C6003808D7
:10048000C5004508B63CC500FA014608C900C617B4
:100490000310C60CC70CC80CFA0CF90CF80CF70CBE
:1004A000C50B482AC91F5F2AF709F809F909FA0993
:1004B000F70A0319F80A0319F90A0319FA0A7A085C
:1004C000BB007908BA007808B9007708B800BB1FEC
:1004D000762ABD03BD16B809B909BA09BB09B80A1D
:1004E0000319B90A0319BA0A0319BB0A3B30C4003D
:1004F0009A30C300CA30C200C1010A30BF003C08B4
:100500000319BD0A83143830840083133B08C800E4
:100510003A08C7003908C6003808C5004408CC00AE
:100520004308CB004208CA004108C900CB21780823
:10053000F708031DAE2A3C0A3F020319AE2A3D0804
:100540000319B02A0F393F020319A82A0318E02A19
:10055000BD1BE02A3D1BB02A2030DC2A2030BD051F
:10056000BD1EBE2ABD123C08031DBD037708BD0099
:100570002D30C500C0203D08F700BD013C083F02FA
:10058000031DCC2A7708BD002E30C500C0203D08D1
:10059000F7002030BD0500303030BD1EDC2ABD1212
:1005A0003C08031DBD037708BD002D30C500C020E9
:1005B0003D08F700BD013030F7077708C500C020BF
:1005C00083104408C8004308C7004208C600410819
:1005D000C500CC01CB01CA010A30C900CB217A0881
:1005E000C4007908C3007808C2007708C100BF0BB7
:1005F000822A080003081F39830083161F149F14E2
:100600001F159F1107309C008313083088001F13AB
:1006100083121F179F1783169F1783121F148316A9
:100620001F109F101F159F1183127B280130C600D9
:10063000C700AE200C3003178D0000308F0003136D
:10064000EC280030F8001F08C73978049F001F15F8
:100650001F19282B1E08FA0083161E088312B800E3
:100660001E08B90039217A08A3007908A200780889
:10067000A1007708A0002308C8002208C7002108AD
:10068000C6002008C500CC01CB017A30CA007D30FD
:10069000C90056217A08AF007908AE007808AD008D
:1006A0007708AC000830F8001F08C73978049F00AD
:1006B0001F151F19592B1E08FA0083161E088312D6
:1006C000B8001E08B90039217A08A7007908A600E9
:1006D0007808A5007708A4002708C8002608C700E6
:1006E0002508C6002408C500CC01CB017A30CA0019
:1006F0007D30C90056217A08B3007908B200780825
:10070000B1007708B0001830F8001F08C739780426
:100710009F001F151F198A2B1E08FA0083161E083A
:100720008312B8001E08B90039217A08AB00790895
:10073000AA007808A9007708A8002B08C8002A0892
:10074000C7002908C6002808C500CC01CB017A30B3
:10075000CA007D30C90056217A08B7007908B60072
:100760007808B5007708B4000130C6000230C70031
:10077000AE20023084002F08BB002E08BA002D08DE
:10078000B9002C08B800BC011A222030C500C020D6
:100790002030C500C0202030C500C02002308400B9
:1007A0003308BB003208BA003108B9003008B8007D
:1007B000BC011A222030C500C0202030C500C02056
:1007C0002030C500C020023084003708BB00360846
:1007D000BA003508B9003408B800BC011A22212B30
:0207E0006300B4
:02400E00713F00
:00000001FF
;PIC16F877A
;CRC=1F45  CREATED="04-ene.-24 10:23"
